:0400000027EF00F0F6
:100008004A82D9CF03F0DACF04F00E0137A50FEFFB
:1000180000F011EF00F015EF00F0B0EC0FF00E015A
:10002800E46F50EC10F00009D8A41DEF00F01FEFAA
:1000380000F021EF00F00E012D9504C0DAFF03C097
:0A004800D9FF4A9211007BEF0EF081
:100E00000043616C6962726174696E6720636F6C24
:100E10006F723A00436865636B696E672E2E2E0011
:100E20004E616D653A2000477265656E3A00436C0D
:100E30006561723A00426C75653A005265643A0029
:090E4000256C64000A000D00009D
:100E4A00010EDBEC0FF0830E096E0A6AFBEC09F067
:100E5A00000E0001796F120E7A6F7A0E7B6F000E08
:100E6A007C6F000E826F000E816F81C005F082C018
:100E7A0006F0000E086E190E076E03EC10F0010E54
:100E8A000524D96E020E0620DA6EDECF3BF0DECFE5
:100E9A003CF0DECF3DF0DECF3EF03B500001835DFB
:100EAA000B6E3C5084590C6E3D5085590D6E3E5068
:100EBA0086590E6EE80E0F6E030E106E000E116E3E
:100ECA00000E126E70EC0BF00BC093F00CC094F095
:100EDA000DC095F00EC096F081C005F082C006F0F4
:100EEA00000E086E190E076E03EC10F0050E0524AD
:100EFA00D96E020E0620DA6EDECF3BF0DECF3CF072
:100F0A00DECF3DF0DECF3EF03B500001875D0B6E39
:100F1A003C5088590C6E3D5089590D6E3E508A5985
:100F2A000E6EE80E0F6E030E106E000E116E000E9E
:100F3A00126E70EC0BF00BC097F00CC098F00DC05D
:100F4A0099F00EC09AF081C005F082C006F0000E3A
:100F5A00086E190E076E03EC10F0090E0524D96EFF
:100F6A00020E0620DA6EDECF3BF0DECF3CF0DECF9B
:100F7A003DF0DECF3EF03B5000018B5D0B6E3C50E6
:100F8A008C590C6E3D508D590D6E3E508E590E6E19
:100F9A00E80E0F6E030E106E000E116E000E126E2A
:100FAA0070EC0BF00BC09BF00CC09CF00DC09DF0D8
:100FBA000EC09EF081C005F082C006F0000E086ED9
:100FCA00190E076E03EC10F00D0E0524D96E020EF1
:100FDA000620DA6EDECF3BF0DECF3CF0DECF3DF00E
:100FEA00DECF3EF03B5000018F5D0B6E3C509059B6
:100FFA000C6E3D5091590D6E3E5092590E6EE80E90
:10100A000F6E030E106E000E116E000E126E70EC53
:10101A000BF00BC09FF00CC0A0F00DC0A1F00EC0E9
:10102A00A2F093C00FF094C010F096EC0FF00FC02E
:10103A003BF010C03CF097C00FF098C010F096EC4F
:10104A000FF00F503B243D6E10503C203E6E9BC06B
:10105A000FF09CC010F096EC0FF00F503D243F6E3D
:10106A0010503E20406E9FC00FF0A0C010F096ECCA
:10107A000FF00F503F24416E10504020426E41C085
:10108A007DF042C07EF00001000E7EBFFF0E7F6F32
:10109A00806F79517D5D7A517E597B517F5980519C
:1010AA00800A3B6E7C51800A3B58D8B05FEF08F04B
:1010BA0061EF08F080EF08F07DC079F07EC07AF029
:1010CA007FC07BF080C07CF081C005F082C006F052
:1010DA00000E086E190E076E03EC10F0000E0524C0
:1010EA00D96E020E0620DA6E10EE60F0180EDBCF13
:1010FA00E3FFE806FCE20001814B822B82BF8FEFFF
:10110A0008F0825109E1090E815DD8A08FEF08F03D
:10111A0091EF08F03AEF07F020EE60F000EE22F0CF
:10112A00180EDBCFEBFFE806FCE212001A50D96E6C
:10113A00DA6ADFCFF6FF0E0EF76E000EF86E0800C1
:10114A00F550250AD8A4ACEF08F0AEEF08F0E7EFA7
:10115A0009F01A50D96EDA6ADF2A000E0101E56F2A
:10116A00000EE46FE4C1F4F1E669E7691A50D96E3A
:10117A00DA6ADF50236E23C0F6FF0E0EF76E000EFA
:10118A00F86E0800F5CF24F0D6EF08F0232AEFEF27
:10119A0008F0690E246EEFEF08F0000E246EEFEFF0
:1011AA0008F024501C6E1D6A1D50000AD8B4E0EFE6
:1011BA0008F0D2EF08F01C50640AD8B4CEEF08F059
:1011CA000D0AD8B4CEEF08F0050AD8B4CBEF08F070
:1011DA00D2EF08F023C0F6FF0E0EF76E000EF86E7F
:1011EA000800F550640AD8B4FDEF08F0FFEF08F0E4
:1011FA0036EF09F023C0F6FF0E0EF76E000EF86EFA
:10120A000800F550690AD8A40DEF09F00FEF09F0AC
:10121A00E1EF09F036EF09F01B50D96EDA6ADF50B8
:10122A00DF2ADF2AD96EDA6ADECF1FF0DDCF20F09F
:10123A00000E20BEFF0E216E226E4BEF09F01B50EE
:10124A00D96EDA6A040EDF26DF5CD96EDA6ADECF7F
:10125A001FF0DECF20F0DECF21F0DECF22F04BEF01
:10126A0009F024501C6E1D6A1D50000AD8B440EFC4
:10127A0009F04BEF09F01C50690AD8B411EF09F0D4
:10128A00050AD8B424EF09F04BEF09F01A50D96EC9
:10129A00DA6A2328DF6E200E246E22BE57EF09F089
:1012AA005AEF09F0010E5BEF09F0000E1E6E2406DC
:1012BA003C0E2424D96EDA6A030EDA221FC005F026
:1012CA0020C006F021C007F022C008F00A0E096EFD
:1012DA00000E0A6E000E0B6E000E0C6EF6EC0BF092
:1012EA0005C00FF006C010F096EC0FF00F50300F4B
:1012FA00DF6E1FC00BF020C00CF021C00DF022C021
:10130A000EF00A0E0F6E000E106E000E116E000E19
:10131A00126E70EC0BF00BC01FF00CC020F00DC069
:10132A0021F00EC022F01F50201021102210D8B434
:10133A00A1EF09F0A3EF09F0ABEF09F02450D8A40C
:10134A00A9EF09F0ABEF09F05CEF09F02450D8B42B
:10135A00B1EF09F0B3EF09F0D6EF09F01E50D8B497
:10136A00B9EF09F0BBEF09F0D6EF09F024063C0EFD
:10137A002424D96EDA6A030EDA222D0EDF6ED6EF36
:10138A0009F03C0E2424D96EDA6A030EDA22DF5001
:10139A001C6E1C50056E066A19C007F036EC0DF07B
:1013AA00242A200E2418D8A4DDEF09F0DFEF09F073
:1013BA00C6EF09F0FAEF09F01A50D96EDA6ADF2A95
:1013CA00FAEF09F01A50D96EDA6ADFCFF6FF0E0E7D
:1013DA00F76E000EF86E0800F550056E066A19C021
:1013EA0007F036EC0DF0E1EF09F012006DEC10F0A9
:1013FA00520E5CEC10F0B40E5CEC10F072EC10F0D3
:10140A00530E5CEC10F0010E0DEC0FF00B6E0B504E
:10141A00126E136A146A156A010E0DEC0FF00B6E48
:10142A000B500D6E0C6A0CC00EF00DC00FF0000EC2
:10143A000FBEFF0E106E116E12500E10126E135068
:10144A000F10136E14501010146E15501110156EE3
:10145A00010E0DEC0FF00B6E0B50166E176A186A20
:10146A00196A010E0DEC0FF00B6E0B500D6E0C6A23
:10147A000CC00EF00DC00FF0000E0FBEFF0E106E66
:10148A00116E16500E10166E17500F10176E185058
:10149A001010186E19501110196E010E0DEC0FF084
:1014AA000B6E0B501A6E1B6A1C6A1D6A010E0DEC3C
:1014BA000FF00B6E0B500D6E0C6A0CC00EF00DC0C7
:1014CA000FF0000E0FBEFF0E106E116E1A500E10A6
:1014DA001A6E1B500F101B6E1C5010101C6E1D50E4
:1014EA0011101D6E010E0DEC0FF00B6E0B501E6EDF
:1014FA001F6A206A216A000E0DEC0FF00B6E0B506A
:10150A000D6E0C6A0CC00EF00DC00FF0000E0FBE6F
:10151A00FF0E106E116E1E500E101E6E1F500F1011
:10152A001F6E20501010206E21501110216E68EC91
:10153A0010F009C0D9FF0AC0DAFF12C0DEFF13C0DB
:10154A00DEFF14C0DEFF15C0DEFF20EE16F010EE3F
:10155A0004F00950E1260A50E222DECFE6FFDECF90
:10156A00E6FFDECFE6FFDECFE6FF20EE1AF010EE52
:10157A0008F00950E1260A50E222DECFE6FFDECF6C
:10158A00E6FFDECFE6FFDECFE6FF20EE1EF010EE2E
:10159A000CF00950E1260A50E222DECFE6FFDECF48
:1015AA00E6FFDECFE6FFDECFE6FF1200200E066E74
:1015BA000650D8A40E0E076EBBEC0EF00001A35124
:1015CA0044EC10F0BC0E296E400E2A6EA4C02BF01B
:1015DA00A5C02CF0A6C02DF0A7C02EF02EEC0FF05F
:1015EA003B0E066E0650D8A40E0E076EBBEC0EF02C
:1015FA00BC0E066E076ABBEC0EF0BC0E296E400EDE
:10160A002A6EA8C02BF0A9C02CF0AAC02DF0ABC03E
:10161A002EF02EEC0FF0270E066E0650D8A40E0EF2
:10162A00076EBBEC0EF0BC0E066E076ABBEC0EF042
:10163A00BC0E296E400E2A6EACC02BF0ADC02CF049
:10164A00AEC02DF0AFC02EF02EEC0FF0350E066EA8
:10165A000650D8A40E0E076EBBEC0EF0BC0E066E3A
:10166A00076ABBEC0EF0BC0E296E400E2A6EB0C0A3
:10167A002BF0B1C02CF0B2C02DF0B3C02EF02EEC7E
:10168A000FF02E0E066E0650D8A40E0E076EBBEC97
:10169A000EF0BC0E066E076ABBEC0EF0440E066E28
:1016AA000650D8A40E0E076EBBEC0EF0460E066E60
:1016BA000650D8A40E0E076EBBEC0EF0520E446E06
:1016CA002B0E436E000EE82EFED7432EFCD7442E77
:1016DA00FAD700D01200000E146E12BE79EF0BF08A
:1016EA0077EF0BF083EF0BF0121E111E101E0F6C1A
:1016FA00000E102211221222010E146E0EBE8AEF63
:10170A000BF088EF0BF094EF0BF00E1E0D1E0C1E63
:10171A000B6C000E0C220D220E22010E141A000E62
:10172A00156E000E166E000E176E000E186E0F5014
:10173A00101011101210D8B4A5EF0BF0A7EF0BF090
:10174A00DDEF0BF0010E136EB1EF0BF0D8900F36F0
:10175A00103611361236132A12AEB6EF0BF0B8EF66
:10176A000BF0ABEF0BF0D890153616361736183645
:10177A000F500B5C10500C5811500D5812500E5847
:10178A00D8A0CAEF0BF0CCEF0BF0D5EF0BF00F504F
:10179A000B5E10500C5A11500D5A12500E5A1580E9
:1017AA00D8901232113210320F32132EB8EF0BF0DA
:1017BA001450D8B4E3EF0BF0E5EF0BF0EDEF0BF0BC
:1017CA00181E171E161E156C000E16221722182236
:1017DA0015C00BF016C00CF017C00DF018C00EF0B3
:1017EA001200000E0E6E08BEFFEF0BF0FDEF0BF0BD
:1017FA0009EF0CF0081E071E061E056C000E0622D5
:10180A0007220822010E0E6E0CBE10EF0CF00EEF2E
:10181A000CF018EF0CF00C1E0B1E0A1E096C000EC1
:10182A000A220B220C2209500A100B100C10D8B4F1
:10183A0021EF0CF023EF0CF053EF0CF0010E0D6EBC
:10184A002DEF0CF0D89009360A360B360C360D2AD5
:10185A000CAE32EF0CF034EF0CF027EF0CF009501D
:10186A00055C0A5006580B5007580C500858D8A067
:10187A0041EF0CF043EF0CF04BEF0CF00950055E12
:10188A000A50065A0B50075A0C50085AD8900C3274
:10189A000B320A3209320D2E34EF0CF00E50D8B446
:1018AA0059EF0CF05BEF0CF063EF0CF0081E071E0B
:1018BA00061E056C000E06220722082205C005F046
:1018CA0006C006F007C007F008C008F012007766E5
:1018DA003F0000411E0000F0140000140F00000237
:1018EA00000000000000006C582A00002D0F0000C4
:1018FA009F100000CC0B0000020003000100000052
:10190A006F1D2A0000C61A0000000A0000B2070074
:10191A0000020003000000000070FE2E000086187E
:10192A000000040E0000AB0A0000000002000100E3
:10193A00010079CF350000E41D0000BD100000D67B
:10194A000900000000020000000100629F0B000075
:10195A0008040000E3030000C003000002000400C2
:10196A000000000067A3200000E70C0000D40D006F
:10197A0000CC060000020002000100000072D71924
:10198A0000000415000007030000D4030000020051
:10199A000200000000000F001F001D00F40116ECF9
:1019AA0010F062EC10F0C6EC0FF07CEC0FF08BEC50
:1019BA000DF062EC0FF048EC0FF0630EDDEC0DF069
:1019CA00010EDBEC0FF0750E096E030E0A6EFBECCE
:1019DA0009F0750E056E030E066E5C0E076E030E99
:1019EA00086E2CEC0EF023EE5CF000EEA3F0180E5D
:1019FA00DBCFEBFFE806FCE2DBEC0AF0520E466EA8
:101A0A002B0E456E000EE82EFED7452EFCD7462E2D
:101A1A00FAD700D0140E066E0650D8A40E0E076E22
:101A2A00BBEC0EF025EC07F0E9CFD9FFEACFDAFFDD
:101A3A0000EEA3F0180EDBCFEBFFE806FCE2DBECCE
:101A4A000AF0520E466E2B0E456E000EE82EFED799
:101A5A00452EFCD7462EFAD700D0E5EF0CF027EF3B
:101A6A0000F00750D8B43CEF0DF03EEF0DF046EF12
:101A7A000DF00750D8A444EF0DF046EF0DF04BEFF0
:101A8A000DF0055077EC10F08AEF0DF00750D96E83
:101A9A00DA6A0A0ED926DE50DE10D8B457EF0DF0F6
:101AAA0059EF0DF072EF0DF00750D96EDA6A0A0E8F
:101ABA00D9260750E16EE26A030EE126DE50E65CA3
:101ACA00E650800A0C6EDE50800A0C58D8B070EFCF
:101ADA000DF072EF0DF08AEF0DF00750D96EDA6A49
:101AEA00030ED926DF50086E0750D96EDA6ADF5026
:101AFA000824D96EDA6A05C0DFFF0750D96EDA6AA0
:101B0A00030ED926DE2A000EDD22120021EEAFF0E6
:101B1A0012EE00F0180EDBCFE3FFE806FCE221EE3E
:101B2A0096F012EE19F0180EDBCFE3FFE806FCE29E
:101B3A0021EE7DF012EE32F0180EDBCFE3FFE8065D
:101B4A00FCE221EE64F012EE4BF0180EDBCFE3FF5D
:101B5A00E806FCE221EE4BF012EE64F0180EDBCF41
:101B6A00E3FFE806FCE221EE32F012EE7DF0180EF9
:101B7A00DBCFE3FFE806FCE221EE19F012EE96F065
:101B8A00180EDBCFE3FFE806FCE221EE00F012EECE
:101B9A00AFF0180EDBCFE3FFE806FCE222EEE1F03D
:101BAA0012EEC8F0180EDBCFE3FFE806FCE21200E3
:101BBA00056E7C988498809088907E9086907D941B
:101BCA007D987B9E7F9C85948598839E879C050E35
:101BDA000E01746F060E766F070E696F080E886F16
:101BEA00BD508F0B4009BD6EE00EBE16BF50F00B04
:101BFA000109BF6E05C0BCFFBD8E000EAA6E000EA5
:101C0A00A66E000E0F01256F000E216FFC0EAD1699
:101C1A00F30EAD16CF0EAD163F0EAD16AB88AB5018
:101C2A00F00B0C09AB6EAB8EA788A750F00B0C0912
:101C3A00A76EA78E26892651F00B0C09266F268FD0
:101C4A0022892251F00B0C09226F228F120005C043
:101C5A00D9FF06C0DAFF10EE01F00750E12608505E
:101C6A00E222DECFE6FFDECFE6FFDECFE6FFDECF03
:101C7A00E6FF20EE04F00550D9260650DA2210EECF
:101C8A0005F00750E1260850E222DECFE6FFDECF5C
:101C9A00E6FFDECFE6FFDECFE6FF20EE08F00550D6
:101CAA00D9260650DA2210EE09F00750E12608502C
:101CBA00E222DECFE6FFDECFE6FFDECFE6FFDECFB3
:101CCA00E6FF20EE0CF00550D9260650DA2210EE77
:101CDA000DF00750E1260850E222DECFE6FFDECF04
:101CEA00E6FFDECFE6FFDECFE6FF12006E0EF66EEF
:101CFA00200EF76E000EF86E02EEE1F010EE19F00B
:101D0A000900F5CFEEFFE550E150FAE1D80EF66E84
:101D1A00180EF76E000EF86E01EE00F010EED0F01D
:101D2A000900F5CFEEFFE550E150FAE104EE00F0CC
:101D3A00C80EEE6AE806FDE103EE00F05C0EEE6AFC
:101D4A00E806FDE102EE00F0E10EEE6AE806FDE1CA
:101D5A0001EED0F0260EEE6AE806FDE1496A486A0D
:101D6A00476A4A904A920001D4EF0CF0D2EF0EF083
:101D7A0006C0F6FF07C0F7FF000EF86E0D0EF764F7
:101D8A0003D00800F55005D0F6CFE9FFF7CFEAFFF8
:101D9A00EF5044EC10F0064A072A06C0F6FF07C0C7
:101DAA00F7FF000EF86E0D0EF76403D00800F55029
:101DBA0005D0F6CFE9FFF7CFEAFFEF500009D8A424
:101DCA00E9EF0EF0EBEF0EF0BDEF0EF0120026C0B9
:101DDA0028F0F8EF0EF025C019F0280E1A6E27C069
:101DEA001BF09BEC08F028C0F6FF0E0EF76E000EF3
:101DFA00F86E0800F5500009D8A406EF0FF008EFB6
:101E0A000FF0F0EF0EF0000E266E000E256E120097
:101E1A00076EEFEC0FF00E01DA87EFEC0FF0D5CE7C
:101E2A0008F0EFEC0FF00750D8B41EEF0FF022EFD6
:101E3A000FF0066A062A23EF0FF0066A063A0646EC
:101E4A000E01DA510618DF0B0618DA6FDA89085024
:101E5A0012002B0E2F6E29C030F0000E346E000EC9
:101E6A00336E000E3B6E000E3A6E300E256E2AC09F
:101E7A0026F02F0E276EECEC0EF029503324D96E83
:101E8A00DA6ADF6A1200000E0D6E010E0E6E010E86
:101E9A000F6E250E116E0F0E126E210E136E0F0E9F
:101EAA00146E630E106E20EE0DF000EE05F0070EB4
:101EBA00DBCFEBFFE806FCE21200000E0D6E010E0E
:101ECA000E6E010E0F6EAA0E116E0F0E126EA60E78
:101EDA00136E0F0E146E630E106E20EE0DF000EEF0
:101EEA0005F0070EDBCFEBFFE806FCE21200C6ECBA
:101EFA000FF0010E076E000E27EC10F03F0E096E70
:101F0A00550EE82EFED7092EFCD70000030E076EE9
:101F1A00000E27EC10F0D50E076E010E27EC10F01C
:101F2A00120010BE9BEF0FF09DEF0FF0A3EF0FF022
:101F3A000FC00FF010C010F0AFEF0FF00FC011F08C
:101F4A0010C012F0111E121E114A122A11C00FF0EF
:101F5A0012C010F012003B0E4764B6EF0FF0B8EF54
:101F6A000FF0BAEF0FF0000E476E472A4704016ED2
:101F7A00026A000E0124D96E030E0220DA6EDF50C7
:101F8A0012000E01D951F00B0809D96FD98B9F0E97
:101F9A00D66F848A848CA79BA79D1D0E1D6F1E0E6B
:101FAA001C6F1C0E6F6F1B0E706F1200056E8790F0
:101FBA00859E819605B002D07F9001D07F8005B0C2
:101FCA0002D07D9E01D07D8E05B002D0799601D0D7
:101FDA00798612000E01D8B5F5EF0FF0F7EF0FF082
:101FEA00EFEF0FF0DACE05F01F0E0516D8A400EFBA
:101FFA0010F002EF10F0EFEF0FF012000550070299
:10200A00F3CF09F0F4CF0AF005500802F3500A267C
:10201A0006500702F3500A2609C005F00AC006F066
:10202A00120083828380120E0E01626F110E156FE9
:10203A00E997E895670EE56F000EE66FE789E78F87
:10204A00E88B1200086E6DEC10F0520E5CEC10F08A
:10205A00085080095CEC10F007505CEC10F068EC5A
:10206A0010F012006B38060000F8020000D30100DD
:0D207A00004C01000002000000000000000A
:10208800056E0E0137A54BEF10F04DEF10F045EF40
:1020980010F005C0E4FE120047504818D8A457EFC6
:1020A80010F05AEF10F0010E5BEF10F0000E120066
:1020B800066EEFEC0FF006C0D5FE1200F29AF28C15
:1020C8000E012D87F28E1200EFEC0FF00E01DA856B
:1020D8001200EFEC0FF00E01DA811200EFEC0FF0B6
:0820E8000E01DA831200120060
:020000040030CA
:02000000AAFF55
:020004009FFF5C
:00000001FF
