:0400000027EF00F0F6
:100008005B82D9CF03F0DACF04F00E0137A50FEFEA
:1000180000F011EF00F015EF00F0A4EC12F00E0163
:10002800E46F2BEC13F00009D8A41DEF00F01FEFCC
:1000380000F021EF00F00E012D9504C0DAFF03C097
:0A004800D9FF5B92110076EF10F073
:100E00000043616C6962726174696E6720636F6C24
:100E10006F723A004E616D653A2000477265656EEB
:100E20003A00436C6561723A00426C75653A005253
:0D0E300065643A00256C64000A000D0000A6
:100E3E00010ECFEC12F0850E096E94EC08F0000E48
:100E4E0000017B6F120E7C6F7A0E7D6F000E7E6F2F
:100E5E00000E846F000E836F83C005F084C006F011
:100E6E00000E086E1B0E076EF7EC12F0010E052435
:100E7E00D96E030E0620DA6EDECF3CF0DECF3DF0EB
:100E8E00DECF3EF0DECF3FF03C500001855D0B6EB5
:100E9E003D5086590C6E3E5087590D6E3F50885905
:100EAE000E6EE80E0F6E030E106E000E116E000E1B
:100EBE00126E29EC0DF00BC095F00CC096F00DC023
:100ECE0097F00EC098F083C005F084C006F0000EB7
:100EDE00086E1B0E076EF7EC12F0050E0524D96E88
:100EEE00030E0620DA6EDECF3CF0DECF3DF0DECF15
:100EFE003EF0DECF3FF03C500001895D0B6E3D5061
:100F0E008A590C6E3E508B590D6E3F508C590E6E99
:100F1E00E80E0F6E030E106E000E116E000E126EA6
:100F2E0029EC0DF00BC099F00CC09AF00DC09BF09F
:100F3E000EC09CF083C005F084C006F0000E086E53
:100F4E001B0E076EF7EC12F0090E0524D96E030E78
:100F5E000620DA6EDECF3CF0DECF3DF0DECF3EF087
:100F6E00DECF3FF03C5000018D5D0B6E3D508E5933
:100F7E000C6E3E508F590D6E3F5090590E6EE80E0E
:100F8E000F6E030E106E000E116E000E126E29EC17
:100F9E000DF00BC09DF00CC09EF00DC09FF00EC06A
:100FAE00A0F083C005F084C006F0000E086E1B0E84
:100FBE00076EF7EC12F00D0E0524D96E030E062007
:100FCE00DA6EDECF3CF0DECF3DF0DECF3EF0DECF90
:100FDE003FF03C500001915D0B6E3D5092590C6EEE
:100FEE003E5093590D6E3F5094590E6EE80E0F6E93
:100FFE00030E106E000E116E000E126E29EC0DF027
:10100E000BC0A1F00CC0A2F00DC0A3F00EC0A4F056
:10101E0095C005F096C006F073EC12F005C03CF0DA
:10102E0006C03DF099C005F09AC006F073EC12F0C0
:10103E0005503C243E6E06503D203F6E9DC005F08F
:10104E009EC006F073EC12F005503E24406E065022
:10105E003F20416EA1C005F0A2C006F073EC12F065
:10106E0005504024426E06504120436E42C07FF030
:10107E0043C080F00001000E80BFFF0E816F826FB3
:10108E007B517F5D7C5180597D5181598251800AFF
:10109E003C6E7E51800A3C58D8B058EF08F05AEF9B
:1010AE0008F079EF08F07FC07BF080C07CF081C043
:1010BE007DF082C07EF083C005F084C006F0000E85
:1010CE00086E1B0E076EF7EC12F0000E0524D96E9B
:1010DE00030E0620DA6E10EE60F01A0EDBCFE3FF81
:1010EE00E806FCE20001834B842B84BF88EF08F0F6
:1010FE00845109E1090E835DD8A088EF08F08AEFCC
:10110E0008F033EF07F020EE60F000EE21F01A0E3B
:10111E00DBCFEBFFE806FCE2120048EC13F0520EB8
:10112E0037EC13F0B40E37EC13F04DEC13F0530E06
:10113E0037EC13F0010EE9EC11F00A6E0A50116E45
:10114E00126A136A146A010EE9EC11F00A6E0A5063
:10115E000C6E0B6A0BC00DF00CC00EF0000E0EBE26
:10116E00FF0E0F6E106E11500D10116E12500E10EC
:10117E00126E13500F10136E14501010146E010EC9
:10118E00E9EC11F00A6E0A50156E166A176A186AA3
:10119E00010EE9EC11F00A6E0A500C6E0B6A0BC0D0
:1011AE000DF00CC00EF0000E0EBEFF0E0F6E106E88
:1011BE0015500D10156E16500E10166E17500F108E
:1011CE00176E18501010186E010EE9EC11F00A6E21
:1011DE000A50196E1A6A1B6A1C6A010EE9EC11F0AC
:1011EE000A6E0A500C6E0B6A0BC00DF00CC00EF09E
:1011FE00000E0EBEFF0E0F6E106E19500D10196EF2
:10120E001A500E101A6E1B500F101B6E1C50101021
:10121E001C6E010EE9EC11F00A6E0A501D6E1E6A6C
:10122E001F6A206A000EE9EC11F00A6E0A500C6E6D
:10123E000B6A0BC00DF00CC00EF0000E0EBEFF0EB2
:10124E000F6E106E1D500D101D6E1E500E101E6E68
:10125E001F500F101F6E20501010206E43EC13F015
:10126E000950D96EDA6A11C0DEFF12C0DEFF13C05C
:10127E00DEFF14C0DEFF20EE15F00950E16EE26ACB
:10128E00040EE126DECFE6FFDECFE6FFDECFE6FF81
:10129E00DECFE6FF20EE19F00950E16EE26A080E8D
:1012AE00E126DECFE6FFDECFE6FFDECFE6FFDECFC6
:1012BE00E6FF20EE1DF00950E16EE26A0C0EE1260B
:1012CE00DECFE6FFDECFE6FFDECFE6FFDECFE6FFC8
:1012DE0012001FEC07F00101DD51DE11D8A47AEFE8
:1012EE0009F07CEF09F00CEF0AF0C4EC11F00101EB
:1012FE00DF05E011D8A486EF09F088EF09F0F9EFC9
:10130E0009F01FEC07F020EEB5F01A0EEBCFDBFF65
:10131E00E806FCE2520E0001D36F2B0ED26F000EC8
:10132E00E82EFED7D22FFCD7D32FFAD70000A50E6A
:10133E00136EAD0E146E000E166E000E156E30ECA2
:10134E000EF0A50E136EAD0E146EC6C015F0C7C00E
:10135E0016F0CCC017F0CDC018F027EC0AF020EE36
:10136E00A5F000EE1BF0070EDBCFEBFFE806FCE26C
:10137E0020EEADF000EE23F0070EDBCFEBFFE8061C
:10138E00FCE2C8C02BF0C9C02CF0CAC02DF0CBC0F7
:10139E002EF034EC11F0000ECFEC12F0000E010125
:1013AE00E06F000EDF6FD00E056EC8C006F0C9C02C
:1013BE0007F0CAC008F0CBC009F0C6C00AF0C7C01B
:1013CE000BF0D7C10CF0D8C10DF0CCC00EF0CDC0D3
:1013DE000FF0BBEC10F0000E0101D86F000ED76FAE
:1013EE0026EF0AF0A50E136EAD0E146E000E166EDD
:1013FE00010E156E000E186E010E176E27EC0AF018
:10140E000101D74BD82B26EF0AF0D00E056EA5ECB6
:10141E000EF020EEA5F000EE44F0070EDBCFEBFF52
:10142E00E806FCE220EEADF000EE4CF0070EDBCF4E
:10143E00EBFFE806FCE2D00E546E8DEC12F01200BB
:10144E0017501810D8B42EEF0AF030EF0AF0DDEF77
:10145E000AF018BE3BEF0AF0185008E11704D8A0A6
:10146E003BEF0AF03DEF0AF0DDEF0AF0020E151821
:10147E001610D8B445EF0AF047EF0AF0DDEF0AF088
:10148E00165007E1020E155CD8B050EF0AF052EF7D
:10149E000AF0DDEF0AF0000E1C6E000E1B6ECEEF92
:1014AE000AF01350D96EDA6A2D0EDF6E1350D96E14
:1014BE00DA6A010ED92615C0DFFF1350D96EDA6A2B
:1014CE00020ED926010EDF6E1450D96EDA6A2D0E79
:1014DE00DF6E1450D96EDA6A010ED92615C0DFFF01
:1014EE001450D96EDA6A020ED926010EDF6E13C0C1
:1014FE000DF0DEEC0AF014C00DF0DEEC0AF0450E35
:10150E001A6EFF0E196E260EE82EFED7192EFCD778
:10151E001A2EFAD700D07C881350D96EDA6A0F0EC5
:10152E00DF6E1350D96EDA6A010ED92615C0DFFFB1
:10153E001350D96EDA6A020ED926DF6A1450D96EAC
:10154E00DA6A0F0EDF6E1450D96EDA6A010ED926E2
:10155E0015C0DFFF1450D96EDA6A020ED926DF6A83
:10156E0013C00DF0DEEC0AF014C00DF0DEEC0AF044
:10157E00150E1A6E4B0E196EBE0EE82EFED7192ED4
:10158E00FCD71A2EFAD700D07C981B4A1C2A17506B
:10159E001B5C1C50800A196E1850800A1958D8A06E
:1015AE00DBEF0AF0DDEF0AF058EF0AF012000D50F3
:1015BE00D96EDA6A020ED926DF50D8B4E9EF0AF0F6
:1015CE00EBEF0AF016EF0BF00D50D96EDA6A030E40
:1015DE00D926DF500E6E0D50D96EDA6ADF500F6EBF
:1015EE000F500E02F3CF05F0F4CF06F0000E086E8A
:1015FE00640E076E11EC0FF00D50D96EDA6A030E01
:10160E00D926DF50106E0550105C116E0D50D96E3C
:10161E00DA6A030ED926DF50126E32EF0BF0000E8F
:10162E00116E0D50D96EDA6A030ED926DF500E6E8A
:10163E000D50D96EDA6ADF500F6E0F500E02F3CFD7
:10164E0005F0F4CF06F0000E086E640E076E11EC76
:10165E000FF00550126E0D50D96EDA6A010ED926B2
:10166E00DF50D8B43DEF0BF03FEF0BF05FEF0BF018
:10167E000D50D96EDA6A040ED926DECF0EF0DDCF0C
:10168E000FF00EC0D9FF0FC0DAFF11C0DFFF0D50F3
:10169E00D96EDA6A060ED926DECF0EF0DDCF0FF048
:1016AE000EC0D9FF0FC0DAFF12C0DFFF7DEF0BF0C7
:1016BE000D50D96EDA6A040ED926DECF0EF0DDCFCC
:1016CE000FF00EC0D9FF0FC0DAFF12C0DFFF0D50B2
:1016DE00D96EDA6A060ED926DECF0EF0DDCF0FF008
:1016EE000EC0D9FF0FC0DAFF11C0DFFF120055C0C8
:1016FE0042F056C043F043BE8FEF0BF0435006E16D
:10170E004204D8B08DEF0BF08FEF0BF091EF0BF092
:10171E0016EF0CF02F0E136E370E146E4250020D94
:10172E003F50F324D96EDA6A4E0ED926DECF15F06D
:10173E00DDCF16F04250020D3F50F324D96EDA6A17
:10174E00760ED926DECF17F0DDCF18F027EC0AF093
:10175E00520E416E2B0E406E000EE82EFED7402E1E
:10176E00FCD7412EFAD700D020EE2FF000EE1BF062
:10177E00070EDBCFEBFFE806FCE220EE37F000EEC3
:10178E0023F0070EDBCFEBFFE806FCE24250020D22
:10179E003F50F324D96EDA6AFE0ED926DECF2BF037
:1017AE00DDCF2CF04250020D3F50F324D96EDA6A91
:1017BE00260ED926DECF2DF0DDCF2EF034EC11F033
:1017CE00520E416E2B0E406E000EE82EFED7402EAE
:1017DE00FCD7412EFAD700D02F0E136E370E146E93
:1017EE004250020D3F50F324D96EDA6A4E0ED926BE
:1017FE00DECF15F0DDCF16F04250020D3F50F32430
:10180E00D96EDA6A9E0ED926DECF17F0DDCF18F02C
:10181E0027EC0AF04206D8A0430682EF0BF02F0EFB
:10182E00136E370E146E97EC11F01200000E1A6E36
:10183E00000E196E97EF0CF01350D96EDA6A1B0E6C
:10184E00DF6E1350D96EDA6A010ED926010EDF6EE5
:10185E001350D96EDA6A020ED926010EDF6E1450BD
:10186E00D96EDA6A1B0EDF6E1450D96EDA6A010E6B
:10187E00D926DF6A1450D96EDA6A020ED926010E05
:10188E00DF6E13C00DF0DEEC0AF014C00DF0DEECCE
:10189E000AF07E80190E186E5A0E176EB20EE82ED2
:1018AE00FED7172EFCD7182EFAD77C887E901350B1
:1018BE00D96EDA6A0F0EDF6E1350D96EDA6A010E28
:1018CE00D926010EDF6E1350D96EDA6A020ED926B2
:1018DE00DF6A1450D96EDA6A0F0EDF6E1450D96EAD
:1018EE00DA6A010ED926DF6A1450D96EDA6A020E50
:1018FE00D926DF6A13C00DF0DEEC0AF014C00DF02D
:10190E00DEEC0AF0190E186E5A0E176EB20EE82E95
:10191E00FED7172EFCD7182EFAD77C98194A1A2AFA
:10192E001550195C16501A58D8A0A0EF0CF0A2EF63
:10193E000CF023EF0CF01200000E1A6E000E196E52
:10194E001DEF0DF01350D96EDA6A1B0EDF6E1350B9
:10195E00D96EDA6A010ED926DF6A1350D96EDA6AA9
:10196E00020ED926010EDF6E1450D96EDA6A1B0EE6
:10197E00DF6E1450D96EDA6A010ED926010EDF6EB3
:10198E001450D96EDA6A020ED926010EDF6E13C01C
:10199E000DF0DEEC0AF014C00DF0DEEC0AF08080E3
:1019AE00190E186E5A0E176EB20EE82EFED7172E9F
:1019BE00FCD7182EFAD77C8880901350D96EDA6A2D
:1019CE000F0EDF6E1350D96EDA6A010ED926DF6A5A
:1019DE001350D96EDA6A020ED926DF6A1450D96E08
:1019EE00DA6A0F0EDF6E1450D96EDA6A010ED9263E
:1019FE00010EDF6E1450D96EDA6A020ED926DF6A36
:101A0E0013C00DF0DEEC0AF014C00DF0DEEC0AF09F
:101A1E00190E186E5A0E176EB20EE82EFED7172E2E
:101A2E00FCD7182EFAD77C98194A1A2A1550195C29
:101A3E0016501A58D8A026EF0DF028EF0DF0A9EF8A
:101A4E000CF01200000E146E12BE32EF0DF030EFDD
:101A5E000DF03CEF0DF0121E111E101E0F6C000E3D
:101A6E00102211221222010E146E0EBE43EF0DF043
:101A7E0041EF0DF04DEF0DF00E1E0D1E0C1E0B6CFA
:101A8E00000E0C220D220E22010E141A000E156EDF
:101A9E00000E166E000E176E000E186E0F50101000
:101AAE0011101210D8B45EEF0DF060EF0DF096EF3E
:101ABE000DF0010E136E6AEF0DF0D8900F36103642
:101ACE0011361236132A12AE6FEF0DF071EF0DF0C4
:101ADE0064EF0DF0D89015361636173618360F50AF
:101AEE000B5C10500C5811500D5812500E58D8A0B7
:101AFE0083EF0DF085EF0DF08EEF0DF00F500B5EB6
:101B0E0010500C5A11500D5A12500E5A1580D89072
:101B1E001232113210320F32132E71EF0DF01450AB
:101B2E00D8B49CEF0DF09EEF0DF0A6EF0DF0181E41
:101B3E00171E161E156C000E16221722182215C01F
:101B4E000BF016C00CF017C00DF018C00EF01200FE
:101B5E00010ECFEC12F01FEC07F020EEA5F01A0EDE
:101B6E00EBCFDBFFE806FCE20301CA510001B2191C
:101B7E0013E10301CB510001B3190EE10301CC5166
:101B8E000001B41909E10301CD510001B519D8A422
:101B9E00D3EF0DF0D5EF0DF02AEF0EF00301BE518D
:101BAE000001A61913E10301BF510001A7190EE1AF
:101BBE000301C0510001A81909E10301C15100013F
:101BCE00A919D8A4EDEF0DF0EFEF0DF02AEF0EF0FE
:101BDE000301C2510001AA1913E10301C35100010F
:101BEE00AB190EE10301C4510001AC1909E1030167
:101BFE00C5510001AD19D8A407EF0EF009EF0EF094
:101C0E002AEF0EF00301C6510001AE1913E10301D4
:101C1E00C7510001AF190EE10301C8510001B019FF
:101C2E0009E10301C9510001B119D8A421EF0EF049
:101C3E0023EF0EF02AEF0EF0000E0101DE6F010E03
:101C4E00DD6F2FEF0EF0000E0101DE6F000EDD6F67
:101C5E0012001350D96EDA6A230EDF6E1350D96E4E
:101C6E00DA6A010ED92615C0DFFF1350D96EDA6A73
:101C7E00020ED926010EDF6E1450D96EDA6A230ECB
:101C8E00DF6E1450D96EDA6A010ED92615C0DFFF49
:101C9E001450D96EDA6A020ED926010EDF6E13C009
:101CAE000DF0DEEC0AF014C00DF0DEEC0AF0210EA1
:101CBE00186E780E176E980EE82EFED7172EFCD7DC
:101CCE00182EFAD700D07C881350D96EDA6A0F0E10
:101CDE00DF6E1350D96EDA6A010ED92615C0DFFFFA
:101CEE001350D96EDA6A020ED926DF6A1450D96EF5
:101CFE00DA6A0F0EDF6E1450D96EDA6A010ED9262B
:101D0E0015C0DFFF1450D96EDA6A020ED926DF6ACB
:101D1E0013C00DF0DEEC0AF014C00DF0DEEC0AF08C
:101D2E00110E186E3C0E176ECB0EE82EFED7172E28
:101D3E00FCD7182EFAD700007C981200000E0B6EFE
:101D4E00000E0A6E01EF0FF00A50020D0550F3243B
:101D5E00D96EDA6A280ED926DE50DE10D8B4BAEF64
:101D6E000EF0BDEF0EF0010EBEEF0EF0000E086E7F
:101D7E00096A0A50020D0550F324D96EDA6A280E4C
:101D8E00D92608C0DEFF09C0DDFF0A50020D05503E
:101D9E00F324D96EDA6A500ED926020EDE18DE1042
:101DAE00D8B4DCEF0EF0DEEF0EF0FFEF0EF00A50BF
:101DBE00020D0550F324D96EDA6A500ED926DE5084
:101DCE00DE10D8B4EDEF0EF0F0EF0EF0010EF1EFE5
:101DDE000EF0000E086E096A0A50020D0550F3242B
:101DEE00D96EDA6A500ED92608C0DEFF09C0DDFFB3
:101DFE000A4A0B2A55500A5C0B50800A066E565042
:101E0E00800A0658D8A00EEF0FF010EF0FF0ABEFD0
:101E1E000EF01200000E0A6E08BE1AEF0FF018EF49
:101E2E000FF020EF0FF0076C081ED8B0082A010E35
:101E3E000A6E06BE27EF0FF025EF0FF02DEF0FF015
:101E4E00056C061ED8B0062A010E0A1A000E0C6E7C
:101E5E00000E0B6E07500810D8B438EF0FF03AEFA3
:101E6E000FF062EF0FF0010E096E42EF0FF0D890F7
:101E7E0007360836092A08AE47EF0FF049EF0FF084
:101E8E003EEF0FF0D8900B360C360750055C08501D
:101E9E000658D8A055EF0FF057EF0FF05CEF0FF08C
:101EAE000750055E0850065A0B80D890083207324C
:101EBE00092E49EF0FF00A50D8B468EF0FF06AEF11
:101ECE000FF06EEF0FF00B6C0C1ED8B00C2A0BC07F
:101EDE0005F00CC006F012006C452400001B0D002E
:101EEE0000290E0000050A00000200030001000098
:101EFE000000006FBA280000271A000091090000A8
:101F0E006E07000002000300000000000000709E3B
:101F1E002F0000DD180000330E0000CD0A00000077
:101F2E000002000000010000007914370000911E2D
:101F3E00000026110000130A00000000020000003D
:101F4E000100000062F80B000023040000020400F0
:101F5E0000DC030000020004000000000000006727
:101F6E00B1210000520D00004C0E000006070000CB
:101F7E0002000200010000000000727F1C000061E0
:101F8E001700003E030000420400000200020000A1
:0B1F9E0000000000000F001B00F40119
:101FAA0021EEA2F013EE00F01A0EDBCFE3FFE806F3
:101FBA00FCE221EE87F013EE1BF01A0EDBCFE3FFF3
:101FCA00E806FCE221EE6CF013EE36F01A0EDBCFD7
:101FDA00E3FFE806FCE221EE51F013EE51F01A0E8F
:101FEA00DBCFE3FFE806FCE221EE36F013EE6CF0FD
:101FFA001A0EDBCFE3FFE806FCE221EE1BF013EE3C
:10200A0087F01A0EDBCFE3FFE806FCE221EE00F0D0
:10201A0013EEA2F01A0EDBCFE3FFE806FCE222EE93
:10202A0057F013EEBDF01A0EDBCFE3FFE806FCE231
:10203A0022EE3CF013EED8F01A0EDBCFE3FFE806EF
:10204A00FCE21200056E7C988498809088907E90BD
:10205A0086907D947D987B9E7F9C85948598839EAF
:10206A00879C050E0E01746F060E766F070E696F58
:10207A00080E886FBD508F0B4009BD6EE00EBE166C
:10208A00BF50F00B0109BF6E05C0BCFFBD8E000E2C
:10209A00AA6E000EA66E000E0F01256F000E216FAC
:1020AA00FC0EAD16F30EAD16CF0EAD163F0EAD16E5
:1020BA00AB88AB50F00B0C09AB6EAB8EA788A75060
:1020CA00F00B0C09A76EA78E26892651F00B0C0976
:1020DA00266F268F22892251F00B0C09226F228F3C
:1020EA001200140EF66E240EF76E000EF86E02EE53
:1020FA003CF010EE36F00900F5CFEEFFE550E15066
:10210A00FAE1E60EF66E1E0EF76E000EF86E01EE9E
:10211A0000F010EEC3F00900F5CFEEFFE550E150F4
:10212A00FAE104EE00F0C80EEE6AE806FDE103EEFD
:10213A0000F0F30EEE6AE806FDE102EE00F03C0E56
:10214A00EE6AE806FDE101EEC3F01E0EEE6AE8064D
:10215A00FDE15A6A596A586A576A566A556A5B9023
:10216A005B92000EF86E0001F8EF10F05550020D68
:10217A000550F324D96EDA6A06C0DEFF07C0DDFF18
:10218A005550020D0550F324D96EDA6A280ED92665
:10219A0008C0DEFF09C0DDFF5550020D0550F324CB
:1021AA00D96EDA6A500ED9260AC0DEFF0BC0DDFFEF
:1021BA005550020D0550F324D96EDA6A780ED926E5
:1021CA000CC0DEFF0DC0DDFF5550020D0550F32493
:1021DA00D96EDA6AA00ED9260EC0DEFF0FC0DDFF67
:1021EA00554A562A12000AEC13F03DEC13F0BAECE9
:1021FA0012F059EC12F0D5EC0FF03FEC12F020EE91
:10220A00E8F0070EEBCFDBFFE806FCE225EC12F064
:10221A0020EEF0F0070EEBCFDBFFE806FCE2630EE0
:10222A0027EC10F020EEE8F000EED4F0070EDBCF3A
:10223A00EBFFE806FCE220EEF0F000EEDCF0070E21
:10224A00DBCFEBFFE806FCE2000E0001E46F040EB0
:10225A00E56F66EC11F017EF11F027EF00F02B5045
:10226A002C10D8B43BEF11F03DEF11F065EF11F0EF
:10227A002D502E10D8A444EF11F046EF11F052EF72
:10228A0011F01B0E136E230E146E2BC015F02CC00A
:10229A0016F01DEC0CF065EF11F02D042E10D8A4E9
:1022AA0059EF11F05BEF11F065EF11F01B0E136E91
:1022BA00230E146E2BC015F02CC016F0A3EC0CF0F4
:1022CA001200AFEC0DF020EED4F000EEA5F0070EF0
:1022DA00DBCFEBFFE806FCE220EEDCF000EEADF02F
:1022EA00070EDBCFEBFFE806FCE221EEE1F000EEA1
:1022FA00B5F01A0EDBCFEBFFE806FCE2E4C0D0F043
:10230A00E5C0D1F070EC09F0A30E0001E76F570E9B
:10231A00E66F020EE82EFED7E62FFCD7E72FFAD794
:10232A00000012001350D96EDA6A0A0EDF6E1350DB
:10233A00D96EDA6A010ED926010EDF6E1350D96EF4
:10234A00DA6A020ED926DF6A1450D96EDA6A0A0EE0
:10235A00DF6E1450D96EDA6A010ED926010EDF6ECD
:10236A001450D96EDA6A020ED926DF6A13C00DF04C
:10237A00DEEC0AF014C00DF0DEEC0AF01200010ED9
:10238A00CFEC12F0210E096E94EC08F030BEDAEFB1
:10239A0011F030502F100BE1F50E2D5C010E2E5866
:1023AA00D8A0DAEF11F0DCEF11F0E3EF11F0000E34
:1023BA000101E06F010EDF6FE8EF11F0000E01017D
:1023CA00E06F000EDF6F1200076EE3EC12F00E01F1
:1023DA00DA87E3EC12F0D5CE08F0E3EC12F00750FE
:1023EA00D8B4FAEF11F0FEEF11F0066A062AFFEFF1
:1023FA0011F0066A063A06460E01DA510618DF0B94
:10240A000618DA6FDA89085012006B5406000006C3
:10241A00030000DB0100005301000000000000007F
:10242A00000000000077FC3A00002A1C000071132B
:10243A000000010E0000000002000200000000007F
:10244A00000E0D6E010E0E6E010E0F6E250E116E30
:10245A000F0E126E210E136E0F0E146E630E106E97
:10246A0020EE0DF000EE05F0070EDBCFEBFFE806DD
:10247A00FCE21200000E0D6E010E0E6E010E0F6EC2
:10248A00AA0E116E0F0E126EA60E136E0F0E146E9A
:10249A00630E106E20EE0DF000EE05F0070EDBCF96
:1024AA00EBFFE806FCE21200BAEC12F0010E076E2E
:1024BA00000E1BEC13F03F0E096E550EE82EFED7E8
:1024CA00092EFCD70000030E076E000E1BEC13F05A
:1024DA00D50E076E010E1BEC13F0120006BE78EF44
:1024EA0012F07AEF12F080EF12F005C005F006C084
:1024FA0006F08CEF12F005C007F006C008F0071EC0
:10250A00081E074A082A07C005F008C006F012008C
:10251A0020EE44F000EE2FF0070EDBCFEBFFE806CB
:10252A00FCE220EE4CF000EE37F0070EDBCFEBFFBB
:10253A00E806FCE254C03FF07EEC0BF012003B0EC2
:10254A005764AAEF12F0ACEF12F0AEEF12F0000EE1
:10255A00576E572A5704016E026A000E0124D96E7B
:10256A00020E0220DA6EDF5012000E01D951F00B72
:10257A000809D96FD98B9F0ED66F848A848CA79B42
:10258A00A79D1D0E1D6F1E0E1C6F1C0E6F6F1B0E5E
:10259A00706F1200056E8790859E819605B002D0F5
:1025AA007F9001D07F8005B002D07D9E01D07D8EC4
:1025BA0005B002D0799601D0798612000E01D8B5FD
:1025CA00E9EF12F0EBEF12F0E3EF12F0DACE05F0DA
:1025DA001F0E0516D8A4F4EF12F0F6EF12F0E3EF8F
:1025EA0012F0120005500702F3CF09F0F4CF0AF0F7
:1025FA0005500802F3500A2606500702F3500A262D
:10260A0009C005F00AC006F0120083828380120E08
:10261A000E01626F110E156FE997E895670EE56F67
:10262A00000EE66FE789E78FE88B1200086E48EC28
:10263A0013F0520E37EC13F00850800937EC13F000
:10264A00075037EC13F043EC13F0120057505818A8
:10265A00D8A432EF13F035EF13F0010E36EF13F072
:10266A00000E1200066EE3EC12F006C0D5FE120050
:10267A00F29AF28C0E012D87F28E1200E3EC12F020
:10268A000E01DA851200E3EC12F00E01DA81120073
:0A269A00E3EC12F00E01DA831200E7
:020000040030CA
:02000000AAFF55
:020004009FFF5C
:00000001FF
